:020000020000FC
:1000000000C00FED0DBF1FEF1ABB1FEF17BB52D083
:1000100013E01BBB3BD046D039D03CD037D03AD0D0
:1000200012E034D010E819D010E117D017E015D045
:1000300011E013D0F0E0E4EC15911093600019D0BA
:1000400015911093600015D015911093600011D098
:100050001591109360000DD0FFCFC09812951F939B
:100060001F701BBB13D01F9112951F701BBB0ED0AE
:100070000895C09A10916000107F12951BBB06D0A6
:10008000109160001F701BBB01D00895C19A02D06F
:10009000C198089522E03BE43A95F1F72A95E1F7FB
:1000A00000C008952DE03CEF3A95F1F72A95E1F76D
:1000B0000000089522E83EED3A95F1F72A95E1F720
:0A00C000000008955341543AFFCFA9
:00000001FF
