:020000020000FC
:1000000000C00FED0DBF1FEF1ABB1FEF17BBC09A4B
:1000100044D013E01BBB2DD038D02BD02ED029D00C
:100020002CD012E026D010E809D010E107D017E05C
:1000300005D011E003D018E40DD0FFCFDC98129565
:100040001F931F701BBB1F9114D012951F701BBBF9
:1000500010D008951295109360001F701BBBDC9A9E
:1000600008D01091600012951F701BBBDC9A01D064
:100070000895DD9A02D0DD98089522E03BE43A9598
:10008000F1F72A95E1F700C008952DE03CEF3A958D
:10009000F1F72A95E1F70000089522E83EED3A9540
:0C00A000F1F72A95E1F700000895FFCF6A
:00000001FF
